:020000040800F2
:1000000068FE002069010008FBF30008D9BC000865
:10001000F9F30008651B0008574F010800000000B5
:10002000000000000000000000000000A12F0108F7
:10003000A92B000800000000AF0F00089500010880
:10004000830100088301000883010008051A0108E4
:100050008301000883010008830100088301000870
:1000600083010008B53800088301000883010008F7
:100070008301000883010008830100088301000850
:10008000830100088301000883010008FD4D010879
:10009000C94E01088301000883010008830100089C
:1000A0008301000883010008830100088301000820
:1000B0008301000883010008830100088301000810
:1000C0008301000883010008830100088301000800
:1000D000830100088301000875490108814A01086D
:1000E00083010008830100088301000883010008E0
:1000F00083010008830100088301000883010008D0
:1001000083010008830100088301000883010008BF
:1001100083010008830100088301000883010008AF
:10012000830100088301000883010008830100089F
:10013000DFF810D000F0F6FC0048004701C60208C6
:10014000AFF3008068FE0020EFF30980704780F372
:1001500009887047EFF30880704780F3088870477C
:1001600040BA7047C0BA7047064880470648004703
:10017000FEE7FEE7FEE7FEE7FEE7FEE7FEE7FEE757
:10018000FEE7FEE7553801083101000872B67047F6
:1001900062B67047EFF3108072B6704780F3108834
:1001A000704730BF704720BF7047B0FA80F070478B
:1001B00090FAA0F0B0FA80F0704790FAA0F0704783
:1001C0002DE9F05F0546002092469B46884606468C
:1001D000814640241BE0284641464746224600F01F
:1001E0006CFB53465A46C01A914110D3114618462B
:1001F000224600F053FB2D1A67EB01084F462246BA
:100200000120002100F04AFB17EB00094E41201E9F
:10021000A4F10104DFDC484631462A464346BDE8E6
:10022000F09F10B5431A934209D28318881803E04F
:1002300010F8011D03F8011D521EF9D210BD40EA4D
:1002400001039B0703D009E008C9121F08C0042A54
:10025000FAD203E011F8013B00F8013B521EF9D23B
:1002600010BDD2B201E000F8012B491EFBD270474D
:100270000022F6E710B513460A4604461946FFF772
:10028000F0FF204610BD30B505462A460B4612F851
:10029000010B13F8014B08B1A042F8D01CB10028A3
:1002A00002D06D1CF1E7284630BD421C10F8011B3E
:1002B0000029FBD1801A704730B504460020034660
:1002C00000E05B1C934203D2E05CCD5C401BF8D0A5
:1002D00030BD034611F8012B00F8012B002AF9D19B
:1002E00018467047F0B480EA0102D40F4200B2EB26
:1002F000410F02D20246084611464A0042D0C30DC1
:10030000DDB2C1F3C752AD1A202D35DAC1F31601A3
:1003100041F4000204B15242C5F1200602FA06F18E
:100320002A411044B3EBD05F23D0C4B1012DA0EB20
:10033000C35009DCF0BC4FF0004202EAC352DBB20A
:1003400000F5000000F033BB400000F1807000EBCE
:10035000C350A0F1807040EAD170490009E049081B
:1003600041EAC071A0EBC35000F50000400800EB6B
:10037000C350F0BC00F012BB6142012202EB41010C
:10038000001BF6E7F0BC704781F00041AAE780F05F
:100390000040A7E780EA010210B502F000434000E8
:1003A00022D04A001FD0010E01EB1261C0F35600AB
:1003B000C2F3560240F4000042F40002A0FB022007
:1003C00000047F39140400D0401C50EA124001D4CC
:1003D0004000491EC2B20C0604EBD010401C40087D
:1003E000802A02D003E0002010BD20F00100002987
:1003F00000DA0020184310BD2DE9FE4F804681EA47
:100400000300C00F0C46009021F0004123F000458E
:10041000B8EB0200A94105D24046214690461C4651
:100420000B46024623F00040104347D0270DC7F388
:100430000A00C3F30A510290401A019040286BDA77
:10044000C3F3130040F4801B0098924620B10023B0
:10045000D2EB030A63EB0B0B01985946C0F1400243
:10046000504600F01BFA06460D4650465946019A82
:1004700000F033FA10EB08006141002487EA1152C2
:1004800084EAE7731A4340D0009A62B3019A012AC2
:100490004FEA075215DC001B61EB02014FF00042EE
:1004A00002EA0752CDE90042001C41F580113246B4
:1004B0002B4600F0B9FA03B0BDE8F08F4046214664
:1004C000F9E7001B61EB0201001C41F580130018E5
:1004D0005B412018A2F5001747EB030140EAD570F5
:1004E000B6196D4111E06D084FEA360645EAC07550
:1004F0004FEA0752001B61EB0201001C41F580111D
:1005000049084FEA30000019514132462B4603B0EA
:10051000BDE8F04F00F079BA0098012240000023B6
:10052000D0EB020263EBE073009821464FEAE074DF
:10053000B8EB000061EB0401E9E783F000435BE7FF
:1005400081F0004158E72DE9FE4F81EA030404F0F1
:10055000004421F0004100944FF0000B23F00043D1
:1005600050EA01045ED052EA03045BD0C3F30A549C
:10057000C1F30A552C44A4F2F3340194A0FB0254B5
:10058000C1F3130141F48011C3F3130343F4801347
:1005900001FB024400FB034E840A970A44EA81549B
:1005A00047EA8357A4FB076802958D0A05FB078578
:1005B0004FEA932C04FB0C542705029D4FEA065882
:1005C00047EA1637B5EB08056EEB070C870E920E5F
:1005D00047EA811742EA8312A7FB0201B6EB0B013F
:1005E00064EB00042B0D43EA0C335E1844EB1C5003
:1005F000DA465146E7FB0201C5F313044FEA0B3319
:1006000043EA14534FEA0432019C43EA0603A4F17F
:100610000C040294009CCDE900B400F005FA03B08C
:10062000BDE8F08F00200146F9E72DE9F04D81EAA1
:10063000030404F0004B21F0004514464FF0000A7B
:1006400023F0004150EA050220D054EA01021DD0F7
:10065000C5F30A570246C5F31303C1F31300C1F3F0
:100660000A5640F4801543F48013A7EB0608101BCC
:10067000D64608F2FD3873EB050002D308F10108F5
:1006800001E092185B41B8F1000F03DA0020014647
:10069000BDE8F08D00204FF48011064684460EE040
:1006A000171B73EB050705D3121B63EB050306430A
:1006B0004CEA010C49084FEA300092185B4150EABD
:1006C0000107EDD152EA030012D082EA040083EA66
:1006D0000501084305D0101BAB4106D201220023BF
:1006E00006E000224FF0004302E06FF001025310D9
:1006F0001AEB06004CEB085110EB0A0041EB0B0122
:10070000BDE8F04D00F081B970B521F0004303431E
:100710000CD0C1F30A550024D5EB040564EB0403A7
:10072000D617AD1AB34102DB0020014670BD201878
:1007300041EB025170BDC10F80EAE0700844CA0766
:100740009623002100F033B996230022114600F0D1
:100750002EB90EB5C10F80EAE0700844CA07002127
:1007600040F233438DE80E000A460B4600F05CF978
:1007700003B000BD00F0004220F00040C10DC0F306
:10078000160040F400007F2901DA00207047962906
:1007900003DCC1F19601C84001E096398840002A87
:1007A000F4D04042704720F00040C10DC0F3160065
:1007B00040F400007F2901DA00207047962903DC0D
:1007C000C1F19601C840704796398840704700F0E3
:1007D000004230F000400AD0C10D01F56071C0F355
:1007E000160042EA0151C208400711437047002039
:1007F0000146704730B5041E71F1000404DB4FF070
:100800000044404264EB0101141E73F1000405DB57
:100810001C464FF00043524263EB04038B4208BF77
:10082000824230BD01F0004330B421F0004150EA73
:10083000010206D00A0DA2F56072C1F31301002A6D
:1008400002DC30BC00207047440F44EAC104C10000
:10085000E01830BC00EBC25000F0A0B8002801DB6B
:10086000C0F10040002901DBC1F100418142704725
:1008700030B50B46014600202022012409E021FA70
:1008800002F59D4205D303FA02F5491B04FA02F56D
:100890002844151EA2F10102F1DC30BD202A04DB40
:1008A000203A00FA02F1002070479140C2F1200383
:1008B00020FA03F3194390407047202A04DB203AC2
:1008C00021FA02F00021704721FA02F3D040C2F170
:1008D00020029140084319467047202A06DBCB17B7
:1008E000203A41FA02F043EAE07306E041FA02F3EB
:1008F000D040C2F1200291400843194670470000E1
:100900000FB4002300B589B00CA900910B996FF0CA
:100910000042CB601E4B06931E4B07930423CDE988
:1009200001321D4A089202466B46002000F0A6F9EB
:1009300009B05DF814FB70B586B006464FF0FF3085
:100940000091CDE90101002015460C460490324685
:10095000694604A8FFF7D4FF02460498211825B180
:1009600008B1084600E020462860049800280DD011
:10097000002A02DD0098884208D0081B0094CDE9C7
:1009800001043246694604A8FFF7BAFF06B070BDFD
:10099000B50E0008D30E0008490B00080029A8BFB7
:1009A0007047401C490008BF20F00100704710B498
:1009B000B0FA80FC00FA0CF050EA010404BF10BC4D
:1009C000704749B1CCF1200421FA04F411FA0CF17A
:1009D00018BF012121430843A3EB0C01CB1D4FEAB3
:1009E00000614FEA102042BF002010BC704700EBAE
:1009F000C35010440029A4BF10BC7047401C4900DC
:100A000008BF20F0010010BC704710B5141E73F130
:100A1000000408DA401C41F1000192185B411A43BE
:100A200001D120F0010010BD2DE9F04D92469B460A
:100A300011B1B1FA81F202E0B0FA80F220329046B0
:100A4000FFF72CFF04460F4640EA0A0041EA0B017B
:100A500053465A46084313D0114653EA010019D0B1
:100A6000C8F140025046FFF728FF05460E465046A3
:100A700059464246FFF712FF084305D0012004E023
:100A800020463946BDE8F08D0020054346EAE07671
:100A90002C4337430A986305E40AA0EB08000022C0
:100AA000FD0A44EA47540A3002D500200146E9E72E
:100AB000010510196941DDE9084500196941BDE8E2
:100AC000F04DA2E7C1F30A52C1F3130140F2FF3324
:100AD00041F480119A4202DA00200146704740F248
:100AE00033439A42A2F2334202DC5242FFF7E5BEA0
:100AF000FFF7D4BE30B5041E71F1000404DB4FF0E3
:100B00000044404264EB0101141E73F1000405DB54
:100B10001C464FF00043524263EB0403994208BF66
:100B2000904230BD064C074D06E0E06840F00103FE
:100B300094E8070098471034AC42F6D3FFF7FCFA6C
:100B400084620508A4620508C0B24FF4F05100F0B9
:100B5000D1B900002DE9FF4F087883B09946FF28EE
:100B600005D0491C2D2804D00024002008E00020D6
:100B70000BE00124F9E700EB800003EB4000491C87
:100B80000B78FF2BF7D104B1404200230293147875
:100B900019461D462D2C01D02B2C04D1521C2D2C76
:100BA00013D000240294AA461478FF2C0FD00A25F3
:100BB000A3FB057801FB05814FF0000C03FB0C1132
:100BC000521CE3194AEB0101EEE70124EAE78144F4
:100BD00053EA010002D019F5C87F06DA0398002114
:100BE000C0E9001107B0BDE8F08F0025AE4E2F46DA
:100BF000DFF8B882184600F091F9CDE90001B9F1AB
:100C0000000002DAC9F1000400E004460023A74A0C
:100C10001AEB030B42EB045A12E0E00707D02A4616
:100C2000334638464146FFF78EFC074688462A463B
:100C3000334610461946FFF786FC05460E466410FB
:100C4000002CEAD1DDE90001B9F1000F5A46534604
:100C500006DAFFF7EAFC3A464346FFF7E6FC05E012
:100C6000FFF771FC3A464346FFF76DFC029A0AB162
:100C700081F00041039AC2E90001B3E72DE9FF4F7B
:100C80001F468DB0D7E901464FF0FF382E2045466C
:100C90004FF000090B90B9696D1C0E988847396AAE
:100CA000824688470028F6D1BAF1FF3F0AD024F4E3
:100CB000D064002E11DDBAF12B0F08D0BAF12D0F40
:100CC0000BD102E0404611B08DE744F48064B9696D
:100CD0006D1C0E9888478246761E6946600501D5D0
:100CE0002D2000E02B208DF8000001F1010B0DF10B
:100CF000200809E0B9696D1C0E98884782460F9854
:100D000044F40074761E0560002E02DDBAF1300F47
:100D1000F0D00B998A453ED144F0800406E00F994B
:100D2000681CA9F1010944F400740860B9696D1CDC
:100D3000761E0E98884782463028F0D02BE00B991B
:100D40008A4505D1200603D444F08004761E18E0BD
:100D5000504628F019FF08B30DF11301761E44F434
:100D600000748B4508D2AAF130000BF8010B200665
:100D700007D5A9F1010003E0200602D409F1010022
:100D80008146A00502D50F99681C0860B9696D1CE1
:100D90000E9888478246002ED1DC53E0002E51DDAC
:100DA000BAF1650F02D0BAF1450F4BD1A00549D574
:100DB000B9696D1C24F44074761E0E9888478246EB
:100DC000002E0CDD2B2804D0BAF12D0F07D144F4EE
:100DD0008074B9696D1C0E9888478246761EE005BE
:100DE00001D52D2100E02B2108F8011BCDF82C8026
:100DF00021E00DF12901761E44F4007488450CD2DF
:100E0000AAF1300010F0FF0088F8000002D10B9921
:100E1000884509D908F1010806E0E00501D5244814
:100E200001E042F20F708146B9696D1C0E98884747
:100E300082460F980560002E04DD504628F0A4FE7F
:100E40000028D6D1F9690E988847FF208BF800005A
:100E500088F800000020069007904B466A4608A9D3
:100E600006A8FFF777FEA00502D46FF001002AE77D
:100E700014F0240F0AD0E00714D1DDE90612386817
:100E8000031D3B600068C0E900120BE0DDE90601CC
:100E9000FFF7C8FC0146E00704D13868021D3A603C
:100EA0000068016028460EE7000014400000F03F93
:100EB000F1D8FFFF426842B1016811F8013B23B14C
:100EC000521EC0E90012184670470121C160881EF9
:100ED000704742685AB1C368016843B983688B425E
:100EE00005D0491E521CC0E90012002070474FF087
:100EF000FF3070477F2801D9002208E0064A02EB44
:100F00005002C007127800D1120902F00F0201202E
:100F100090400840704700005C5D05080EB540F247
:100F2000334202920022CDE900221346FFF77CFDF6
:100F300003B000BD70B58C1810F8015B15F0070305
:100F400001D110F8013B2A1106D110F8012B03E062
:100F500010F8016B01F8016B5B1EF9D12B0705D46A
:100F60000023521E0DD401F8013BFAE710F8013BB3
:100F7000CB1A921C03E013F8015B01F8015B521ECF
:100F8000F9D5A142D8D3002070BD000018484FF019
:100F9000FF010170002080F309881648016881F381
:100FA000088815484FF08051016062B6FEE772B6BE
:100FB000EFF3098028B1203880E8F00F0F49096865
:100FC000086000B50E4880475DF804EB0D480E49F7
:100FD0000A78027009480D490A680260106890E8B2
:100FE000F00F203080F309884EF0040E62B670478F
:100FF00022ED00E09400002004ED00E08C000020D1
:10100000BDFE00084800002049000020900000209C
:1010100008B50121084610F031FB01214FF404709E
:1010200010F048FB0220ADF8000000208DF803000E
:101030006946024805F094F908BD0000001001401F
:1010400010B5FFF7E5FFBDE8104000F001B8000063
:1010500070B590B02B4E304601F02EFA2A4805901C
:101060002A480690002407940125089509940A94BB
:1010700028020B9080000C9020200D9000020E9012
:101080000F9405A9304601F093FA0121304601F092
:1010900005FA00948DF804408DF805504FF4602057
:1010A000029003948DF81050174C69464C3C204632
:1010B00000F054F84FF4404010F0D6FA0523012216
:1010C0000B21204600F06EF80121204600F02CF89C
:1010D0000121204600F01CF8204600F09DF8204633
:1010E00000F035F80028FAD1204600F0A6F8204696
:1010F00000F026F80028FAD10121204600F091F8EE
:1011000010B070BD080002404C2401403C02002099
:10111000002904D0816841F0010181607047816835
:1011200021F0010181607047002904D0816841F4F9
:10113000807181607047816821F48071816070479F
:10114000014600208968490700D501207047014603
:1011500000208968090700D50120704710B5426852
:101160000E4B1A400C790B6842EA04221343436089
:1011700082680B4B1A40D1E9024323434C7942EA7F
:10118000440213438360C26A22F47002097C491E40
:10119000C9B242EA0151C16210BD0000FFFEF0FF7A
:1011A000FDF7F1FF70B5072609290AD9C568A1F135
:1011B0000A0404EB4404A640B543A3401D43C560A4
:1011C00007E0056901EB4104A640B543A3401D4378
:1011D00005611F23072A09D2446B521E02EB8202CB
:1011E00093409C4391400C43446370BD0D2A09D247
:1011F000046BD21F02EB820293409C4391400C434C
:10120000046370BDC46A0D3A02EB820293409C43B2
:1012100091400C43C46270BD816841F00801816057
:101220007047002904D0816841F4A00181607047B3
:10123000816821F4A00181607047816841F0040158
:1012400081607047002800DC404270477047000012
:1012500070B58AB0002405940C20144BCDE9013000
:1012600009AE0325CDE90756012180220694CDE978
:101270000321009023460E4A0EA112480EF05AFC9C
:1012800006AB059470C36802CDE9030499210E4AA8
:10129000CDE901210D2000900A4800230B4A0CA142
:1012A000B4300EF047FC0AB070BD000024120020DC
:1012B00089130008417070205461736B205570646D
:1012C00061746500BC0E002028140020051400087D
:1012D000417070205461736B20557365726170703A
:1012E000000000000EB500F0BFF800F04FFE00F067
:1012F00025F902A80EF0C6FB0BA024F085FFFFF72E
:10130000A7FF15A024F080FFFFF7A0FF002502AC87
:1013100008F04CFC0022CDE900540F231146104682
:101320000EF026FEF4E700003C3C2D4F532D494EB5
:10133000464F2D3E3E204372656174696E672041C1
:1013400070706C69636174696F6E205461736B7344
:101350002E2E2E0A0D0A00003C3C2D4F532D494ED7
:10136000464F2D3E3E204372656174696E67204191
:1013700070706C69636174696F6E204576656E7418
:10138000732E2E2E0A0D0A000EB51B4C4FF47A75E3
:1013900008E0A178491CC9B2A1700A2906D22846E2
:1013A00028F098FF13F096F80028F2D101274FF4A7
:1013B0008079DFF848A0124E00250DF1080817E0EB
:1013C000002013F007F938B13078012800D1677098
:1013D0004946504605F04FF80022CDE900586423F5
:1013E000114610460EF0C4FD4946504605F041F83E
:1013F000A0780A28F0D2E3E7280000200008014086
:101400008401002004480078552801D02AF08EFE7F
:1014100013F0A2FDFCE700002800002010B5012019
:1014200010F056F9BDE81040002010F051B900004E
:1014300008B50349084400900098008808BD0000E2
:10144000006C004008B5034A104400900098016009
:1014500008BD0000006C004000B585B0684610F083
:1014600045F9019805B000BD30B585B00020019068
:101470000290039004902B4C294860600121402089
:1014800010F0FCF800F06AFB0CF068F80BF072F852
:101490000BF086F800F026FB13F0D8F916F0D0FA1E
:1014A000042015F0BBFA07F037FA01221EA160688C
:1014B00029F010FF1D4908701D4D18B1E02028705B
:1014C00005B030BD01224FF4FF11194811F0B0FBF7
:1014D000287855281CD11022164901A811F0A8FB24
:1014E000BDF808000090BDF81030BDF80C20BDF824
:1014F0000410002008F002FBBDF80A000090BDF8BF
:101500001230BDF80E20BDF80610012008F0F6FAE2
:1015100010F0A4FA084810F07FF92070D0E700001E
:101520007058002098000020303A00002B00002066
:101530002800002002E01F00F851002010B5FFF73E
:101540008BFF04490968B0FBF1F0BDE810400EF0D4
:10155000B3BD000014D1020838B545680446014601
:10156000284613F0FFFD00282AD02068304A0F28B3
:1015700019D006DC0B2824D00C2810D00E2851D10D
:101580002FE0112802D028284CD145E09268002A8B
:1015900016D02146284601B0BDE83040104721460C
:1015A00028465268F7E7284605F050FE0090406E46
:1015B0000468684605F0B4FE002C01D02846A04718
:1015C00038BD284605F042FE0090683005F098FDD1
:1015D000009803216C3005F0A1FD684605F0A0FEDF
:1015E00020E0E168486809680D2902D0202913D15C
:1015F00005E0002810DD28461FF037FC06E0002833
:1016000004DD2846BDE838401FF02FBC2846BDE861
:10161000384002211FF03FBCE06818B9002128467D
:1016200000F0E0F92046BDE8384014F09DB9000014
:10163000E00500202DE9FF410AAF70CF0027039598
:101640008DE8D00000F003F804B0BDE8F081F0B5FB
:1016500085B00DF1280CBCE8F0004FF0000C8DE8CF
:10166000F01000F025F805B0F0BDF0B5044685B0E7
:101670008069B4F90850668A0027CDE90265CDE992
:1016800000170490B4F90C00B4F91060C118B4F953
:101690000A00B4F90E50104433462A4600F008F808
:1016A0000546616800F0BDF905B02846F0BD0000B0
:1016B0002DE9F04F85B01F46DDE911B4DDE90E5686
:1016C00090468946824607F091F94C341548CDE999
:1016D0000204CDE900563B4642464946504614F0C6
:1016E00089F8040018D005F0B1FD10225946049085
:1016F00013F08CFF049830220B493430FEF791FD33
:10170000094D04990C3D2868486604A805F008FEB8
:10171000286841682046884708F02CFD05B020461F
:10172000BDE8F08F59150008EC050020F0B504461F
:1017300080688B4989B051F82050606800287DD0BE
:10174000052804D006287AD0122879D1AEE0E869BD
:1017500000284FD095E80E008DE80F0004F110012D
:101760000FC909F0BFFA002655F8260007F0BFFFA1
:10177000A169E8690A1A216901446069304406F0E8
:101780005DFDA169E8690A1A21690144E069801BCD
:1017900006F054FDE169E8690A1A616901442069AB
:1017A000304406F021FEE169E8690A1A61690144E2
:1017B000A069801B06F018FE761C022ED4DBA868F8
:1017C00007F095FFE069E9696669431A20694218E4
:1017D000521E3144801C06F0BDFEE169E869A26931
:1017E0000B1A61690144101A401C921E06F0B2FEE9
:1017F000EE6913E05FF0000655F8260007F077FF6A
:10180000E069831BA069821B6069811920693044EB
:1018100006F08AFD761C022EEEDB0226D5E90301D6
:10182000CDE900016169E06908444310A069891CA1
:10183000821B2069304406F09BFC02E089E012E044
:101840008AE0D5E90501CDE90001E369606901217C
:10185000184401EB6001A0699B1E821B2069304483
:1018600006F086FC78E0206805F0F0FC0490206823
:1018700015F01CFD40B1A06808B1002008E00498F4
:10188000006F28B1012003E00498406F00B10220EE
:10189000049901EB8000C56E04A805F041FD00230A
:1018A0001A462846216806F033F955E0206805F00D
:1018B000CDFC0490866EEEB3B0F95C70A168D1B334
:1018C000032942D05FF0000100EB8101406D0C6CF8
:1018D00007F036FF204607F00AFF05A806F0FCFED9
:1018E000BDF81410A88B0144ADF81410BDF8181001
:1018F000081AADF81800BDF81600801CADF81600E7
:10190000BDF81A00801EADF81A0004985E30B0F9D8
:101910000220B0F9001005A807F0F7FC04A805F0B4
:10192000FFFC022007F096FF304605F08FFC3A4698
:1019300005A901E00BE006E0079006F067FA07A8AA
:1019400005F0EEFC08E00121BEE70221BCE704A897
:10195000F6E7206815F022F909B00020F0BD00007C
:10196000E445050808B50023009300F001F808BD20
:1019700070B516460C46054619463046049A06F0E0
:1019800089F8024621462846BDE8704000F08BB831
:10199000044A0349116004494A6A48621046704784
:1019A0001C060020E0050020EC05002000294FF077
:1019B000100101D013F065BC13F0ADBB38B50D4676
:1019C00004000ED007F012F8204605F03FFC00900E
:1019D0004565684605F0A4FC204614F07DFD08F03E
:1019E000C9FB38BD4FF480720029114601D013F0B5
:1019F00048BC13F090BB08B50023009300F001F839
:101A000008BD70B516460C46054619463046049A80
:101A100006F060F8024621462846BDE8704000F016
:101A200042B82DE9FF410E4605004FF0010421D0D8
:101A300006F0DCFF284605F009FC0190876E01A83E
:101A4000009705F06DFC3146684609F0F9FC78B165
:101A500000980024B84208D0284605F0F7FB019012
:101A60000099816601A805F05BFC284614F034FD5E
:101A700008F080FB04B02046BDE8F08138B50C4684
:101A800005000FD006F0B2FF284605F0DFFB0090FE
:101A9000A0F85C40684605F043FC284614F01CFDA5
:101AA00008F068FB38BDF8B515460C46060018D09E
:101AB00006F09CFF304605F0C9FB0090032C0BD8C4
:101AC00000EB84006C3005F01BFB009800EB8400F9
:101AD000C566304614F000FD684605F021FC08F0AC
:101AE00049FBF8BD38B5012104200FF0E3FD4FF4A8
:101AF0008074ADF8004010208DF8030003208DF8AD
:101B00000200054D6946284604F02AFC2146284675
:101B100004F0AFFC38BD00000008014010B50028FB
:101B20000FD04FF48054012811D0022815D1102174
:101B3000012011F0CBFB2146BDE81040022011F03E
:101B40007BBB1021BDE81040012011F0BFBB214636
:101B5000BDE81040022011F06FBB10BD4FF4A06033
:101B60000DF08EBCFEE7C1B2000A40EA01207047CA
:101B700070B500208F4B904C5988A4F1400202E0D0
:101B8000155C2554401C8842FAD38B48626820308B
:101B90004260A26882601F290FD00220FFF7BEFFBB
:101BA00000202060607B1A22052111F02FFCBDE887
:101BB00070400021012011F009BCE17B282901D0EF
:101BC0002A290FD1207D627CE57C40EA0260A27C5C
:101BD000120442EA052210435860E07DA27D40EAEB
:101BE00002209860754A206890427DD1744A607BDB
:101BF0001268904203D8A27B0AB1102A0DD90220A4
:101C0000FFF78CFF607B2422052111F0FFFBBDE86C
:101C100070400021012011F0D9BB252968D01ADCC1
:101C200015297CD00DDC08297AD005DCF1B3032915
:101C30003FD004292DD177E00A2972D0122928D16A
:101C40003BE01A390A2924D2DFE801F0433B237A2A
:101C50003F232323234B8A297DD00EDC552967D0CF
:101C600006DC28294CD02A2950D02F2911D153E045
:101C70005A2932D088290CD172E0A82968D004DC16
:101C80008F2969D09E2904D16EE0AA2974D0AF298A
:101C90007AD00220FFF742FF607B2022052111F05D
:101CA000B5FBBDE870400021012000E024E011F008
:101CB0008DBBBDE8704010F067BDBDE8704010F00E
:101CC00071BCBDE8704010F06BBDBDE8704010F015
:101CD00067BDBDE8704010F0A5BCBDE8704010F0D5
:101CE0009BBCBDE8704001E056E001E010F016BD7D
:101CF000BDE8704010F0D8BCBDE8704010F054BD95
:101D0000D3E90112BDE8704010F092BCD3E9011292
:101D1000BDE8704010F082BDBDE8704002E00BE00D
:101D200012E025E010F05CBDBDE8704010F022BC70
:101D3000BDE8704010F050BCBDE8704010F04CBCE5
:101D4000BDE8704010F048BCBDE8704010F044BCE5
:101D5000BDE8704002E013E01AE00DE010F03CBC7A
:101D6000BDE8704010F038BCBDE8704010F034BCE5
:101D7000BDE8704010F030BCBDE8704010F02CBCE5
:101D8000BDE8704010F028BCBDE8704010F024BCE5
:101D9000BDE8704010F020BC0220FFF7BFFE607B62
:101DA0002022052111F032FBBDE870400021012006
:101DB00011F00CBBF403002044E9002055534243CA
:101DC000580400202DE9FF470446006810B115F0C3
:101DD0006DFA68B10022314850F8221060680A2874
:101DE00041D007DCF0B306280DD0072854D106E017
:101DF0000122F0E712280AD019284DD137E02046F9
:101E000017F0CEFC48E0204619F0C2FB44E0206801
:101E100005F01CFA0290B0F9548090F85650476CC7
:101E2000466B02A805F07CFA206800F039F881467C
:101E3000684613F0B9FEBDF8001009EB0500084430
:101E4000ADF80000246A304607F07AFC022007F063
:101E500001FD384607F04BFC42466946204605F036
:101E6000D5FF19E007E020461AF069FC14E0886904
:101E700004B0BDE8F087206814F090FE206805F0FB
:101E8000E5F90390B0F90610B0F90220891A491C4F
:101E9000C16703A805F044FA0020E9E7F445050806
:101EA00038B5044606F0A2FD204605F0CFF90090B3
:101EB000C46F684605F034FA08F05CF9204638BD76
:101EC000044A034911600449CA69C8611046704751
:101ED000A8060020740C0020780C002000B589B002
:101EE00024216846FEF7C4F91920019003480068D0
:101EF000806841686846884709B000BD740C0020BE
:101F00007CB5214C0546216831F8220F4A8D1044DA
:101F100008804888CA8D10444880284606F0B6FBE1
:101F20002168498CADF800104618284609F024F9BC
:101F30003044401EADF8040006F022FC2168898C74
:101F4000ADF802100844401EADF80600684615F0D2
:101F500041F804E0284603F08FFE14F0EFFF00285C
:101F6000F8D10A2D04D0BDF804002168401C488433
:101F7000206830F8221F428D891A01804188C28D65
:101F8000891A41807CBD000004050020AFF3008069
:101F900002490020086000F009B800003400002069
:101FA00001490860704700003400002010B509485E
:101FB000016841F0807101600748002141600168BB
:101FC00041F001010160FFF747FABDE81040FFF75B
:101FD000E7BF0000FCED00E0001000E001484068B1
:101FE00070470000001000E02DE9F041194E1A4F33
:101FF0001A4C1B4D28E047F6FF702060288800F03F
:102000000F01317007EB8100D0F8002C92B213045D
:102010000CD5D0F8002C40F68F731A40C0F8002C75
:102020001048491E50F8210080470DE012060BD5DC
:10203000D0F8002C48F60F731A40C0F8002C0A485C
:10204000491E50F821008047206828800004D2D41F
:10205000BDE8F0812403002000500040445C0040B3
:1020600054040020380400201C0400202DE9F84FFF
:10207000002000904BF6BF7748F28008614E624D19
:1020800040F68F7ADFF8849148F60F7B604C2CE0A5
:10209000088800F00F0089F8000078B304EB800195
:1020A000D1F8002C0092BDF8002012040AD5D1F816
:1020B000002C02EA0A02C1F8002C5649401E51F8D1
:1020C00020008047BDF8000000060ED599F80000FA
:1020D00004EB8001D1F8002C02EA0B02C1F8002CBD
:1020E0004D49401E51F82000804746484430006862
:1020F0004A4908800004CBD4BDE8F88FFFE7306878
:102100002880288800F030006880288800F440503B
:1021100028803068384080F4005080F0200040EA89
:10212000080030600888C00620D4306800EA0B0040
:1021300030600AF057F9306838402988C90401D561
:1021400080F480502988890401D580F40050698882
:10215000C90601D580F010006988890601D580F094
:10216000200080B240EA08003060C5E73068009087
:10217000BDF80000000520D5306800EA0A00306094
:1021800011F056F9306838402988C90401D580F427
:1021900080502988890401D580F400506988C906D7
:1021A00001D580F010006988890601D580F02000F3
:1021B00080B240EA080030609EE7BDF800000004ED
:1021C00093D5306800EA0A0030600FF01DF83068DF
:1021D00038402988C90401D580F4805029888904B1
:1021E00001D580F400506988C90601D580F010003F
:1021F0006988890601D580F0200080B240EA080095
:10220000306079E7005C00403603002024030020A2
:1022100000500040380400201C040020540400201A
:10222000810008480844D0F8001C490409D5D0F8BA
:10223000001C48F68F7211404CF280021143C0F826
:10224000001C704700500040810008480844D0F846
:10225000001C490609D5D0F8001C48F68F721140C1
:1022600048F2C0021143C0F8001C70470050004003
:10227000810006480844D0F8001C48F68F621140DF
:1022800048F280021143C0F8001C70470050004023
:1022900070B586B013F0B6FC30214FF41472CDE95E
:1022A000032105910321CDE9000116480023029383
:1022B000036A74224FF481713E2009F0E2FD064664
:1022C0000024114D11A2304655F8341009F010FDCC
:1022D000641CE4B2022CF5D30D4A0121304609F00A
:1022E00047FE4FF0FF31304609F08CFE0A220021F4
:1022F000304609F096FE06B03046BDE87040082131
:1023000009F069BE4858002070D1020800000000A2
:1023100080FFFF80F0B587B0002413F073FC2C4AD7
:102320000223CDE901322B4D0090042105F1080074
:1023300003910FC813F05EFA68623A213022CDE9AA
:102340000421002640F25123CDE902630321CDE9A7
:102350000001E8692A68143000EB4003D21E3146C0
:10236000032009F08EFD06461B4D6FF07F4705EBFD
:10237000C40055F834104268304609F0B9FC3A46BA
:102380002146304609F06EFE641CE4B20C2CEED3FC
:10239000124A0121304609F0EBFD1149304609F09F
:1023A00003FE4FF0FF31304609F02CFE0A220021D7
:1023B000304609F036FE0C220121304609F031FE8C
:1023C00007B03046BDE8F040082109F004BE000027
:1023D000B19802084858002080D1020880FFFF8091
:1023E00030B4040870B586B013F00CFC0C23022640
:1023F000CDE901631DA14FF4B072CDE90321009036
:1024000010233C223146002011F0C4FA04461A4938
:10241000204611F061FB6FF07F452946204611F000
:10242000B1FB13F0EFFB15490E2440F261130A686B
:10243000CDE9016412A1CDE90331009002EBD27025
:102440006FF0180101EB600010233222022111F01D
:10245000A1FA04462946204611F094FB06B0204616
:10246000BDE87040094911F037BB000057696C6442
:1024700066697265204F530030B404084858002044
:1024800031313A35363A30300000000020AD0408D2
:102490000148006870470000F4060020002904D0BD
:1024A000016841F001010160704701684FF6FE725A
:1024B000114001607047000001684FF6FE72114044
:1024C00001600021016041608160C1603649364A87
:1024D0000839904204D1486840F00F0048607047C6
:1024E000314A1432904204D1486840F0F00048600C
:1024F00070472D4A2832904204D1486840F47060F9
:1025000048607047284A3C32904204D1486840F401
:10251000704048607047244A5032904204D1486865
:1025200040F47020486070471F4A6432904204D1E2
:10253000486840F47000486070471B4A7832904207
:1025400004D1486840F0706048607047174A111F16
:10255000904204D1086840F00F0008607047134AA9
:102560001432904204D1086840F0F00008607047CF
:102570000E4A2832904204D1086840F47060086026
:1025800070470A4A3C32904204D1086840F47040D7
:1025900008607047054A50329042FAD1086840F40A
:1025A00070200860704700000800024008040240E4
:1025B00030B5026847F6F0739A430C6A8B68234380
:1025C000D1E904452C4323438C692343CC6923433D
:1025D0004C6A23438C6A234313430360CA684260F6
:1025E0000A6882604968C16030BD0000F8B50546E0
:1025F000006804F02BFE0090448ED0F88860684696
:1026000004F08EFE06B1012604F00104286814F0DF
:102610004DFE0EB1002006E00CB1012003E008B130
:10262000022000E003201B4951F82010686858B3CD
:1026300002280CD0052802D0122828D103E0284611
:1026400017F0DAF823E028461AF0D5FD1FE06A6992
:10265000E8694FF0FF33801AA0F1080203EB62042F
:10266000421CAB69001B4510A3EB6206C86907F06A
:102670003EF806E03219311B284605F0DFFD641EE6
:102680006D1C002CF6DA02E0286814F087FA0020AE
:10269000F8BD000054460508044A03491160044986
:1026A0000A6B086310467047F8060020B40C00203F
:1026B000B80C002038B50D46002404F0C7FD00908A
:1026C000C06B294604F0F1FE0546684604F028FE7A
:1026D0001DB1284604F0BAFD0446204638BD10B5A9
:1026E00000F094F800F03AF8CC2000F0A7F844206D
:1026F00000F0A4F800F08AF800F030F8CC2000F0E8
:102700009DF8BE2000F09AF800F072F8044600F040
:102710006FF8000200B220436FF0030400280ADAC9
:10272000C043401CFEF715F82246FDF7EDFFBDE85B
:102730001040FEF777B8FEF70CF82246FDF7E4FFED
:10274000BDE81040FEF76EB810B511F0ABF800F020
:102750005DF8BDE8104000F001B8000070B500243D
:1027600011F0B6F8124D04E0641CE4B2012027F029
:10277000B1FD4021284603F075FE08B1642CF3D367
:10278000642C01D3002070BD002404E0641CE4B27A
:10279000012027F09FFD4021284603F063FE08B981
:1027A000F02CF3D3F02C01D3002070BD012070BDBC
:1027B0000018014010B511F099F80C4C402120464A
:1027C00003F057FE0A2027F085FD11F081F8402123
:1027D000204603F047FE012805D000242D2027F0D5
:1027E00079FD204610BD0124F8E7000000180140E3
:1027F00070B500250024FFF7DDFFA0402843C5B2D7
:10280000641CE4B2082CF6D3284670BD10B511F054
:102810006DF8094C4021204603F02BFE40F2EE20DB
:1028200027F058FD4021204603F025FEBDE810406A
:102830000F2027F04FBD00000018014070B505467D
:1028400011F054F80024134E05F001006D0870B12A
:102850004021304603F00DFE082027F03BFD4021CB
:10286000304603F008FE3A2027F034FD0DE0402109
:10287000304603F0FEFD462027F02CFD4021304677
:1028800003F0F9FD022027F025FD641CE4B2082CBA
:10289000DAD370BD001801402DE9F047DFF89880C9
:1028A000D8F8001001F1100528880E7A234F4FF058
:1028B0003009002801D1042E04D0AC88A04215D8DC
:1028C000042614E01E480178012903D007261020B1
:1028D00038802BE01B4A002112681B4B92B2921CDD
:1028E00043F81210A7F8009001701FE002268442FE
:1028F00000D90446A968A0B288478246002008F0A3
:10290000DBFE0146A2B2504612F0A8FBA1B20020A5
:1029100010F0CEFC2888001B28806888204468803E
:10292000A7F8009009494FF440500880D8F80000FB
:102930000672BDE8F087000028030020380300205D
:1029400020030020505C004000600040360300205F
:102950002DE9F041214E346810342088A168002907
:1029600015D0A0B1A588854200D90546A8B28847F0
:1029700007462088401B2080608828446080002013
:1029800008F07AFE0146AAB238460EF09BFC208879
:10299000134F302538B1134928020880002108461A
:1029A00010F086FC3D802088A188884204D33168DD
:1029B00003200872BDE8F08118B131680520087263
:1029C000F8E7316806200872074800210068074AC6
:1029D00080B2801C42F810103D80EBE728030020F5
:1029E0003803002036030020505C004000600040A7
:1029F0002DE9F843634E306842780024624D062A80
:102A0000296801D08AB117E00278520669D180782E
:102A1000012804D0022804D0032804D061E0CC6946
:102A20005FE00C6A5DE04C6A5BE0438823B9C388D1
:102A3000022B01D1037923B1082A39D00A2A3CD0CC
:102A40004FE00278530601D1838833B102F07F0250
:102A5000012A04D0022A0CD043E04C4C41E08A69A0
:102A600040790021904710BB3068807AF8B1474C1C
:102A700037E0417901F00F0001F070020B06444984
:102A800007D501EB8001D1F8001CC1F30111090148
:102A900006E001EB8001D1F8001CC1F3013109030C
:102AA0003C4B1B7883421CD90AB901B1374C18E062
:102AB0000078400615D1384C13E0027802F07F020E
:102AC000012A0ED1827A62B1428852B9027942B9A2
:102AD000C288012A05D18A6940790021904700B94E
:102AE0002E4C09274FF000083CB13068A0F8128046
:102AF00084610020A047002006E029683068096949
:102B000040788847032816D031680A8AA2F57F43A7
:102B1000FF3B0DD0022811D082B1087800062AD5DB
:102B2000C8880090009882420CD9009808821AE068
:102B30000F72BDE8F88330680772FAE74FF00800BB
:102B40000872F6E70FD22868154B90F82C008242E5
:102B500002D283F8008006E0B2FBF0F400FB142000
:102B600008B901201870286890F82C008882BDE808
:102B7000F843FFF791BE032008720A49000308805A
:102B8000D7E70000280300202C0300205D36010851
:102B900000500040C4040020ED350108353601081E
:102BA0002003002036030020704700002DE9FF417C
:102BB000224D4021284603F05EFC8021284603F088
:102BC0005AFC0824019400268DF80A6001A800F040
:102BD000C1FE09208DF80C008DF80F6003A80CF0E1
:102BE0001DFC10266E611649042008602020286113
:102BF00014480460081F0460012108200EF05AFDEB
:102C00004FF47F40ADF800008DF8036003278DF886
:102C1000027069460C4803F0A3FB012110200EF05E
:102C200049FDADF800408DF803608DF802706946EB
:102C3000284603F095FBBDE8FF810000001001402D
:102C40001408014010140140000C01402DE9FC471C
:102C50000E465FEA00097FD005F0C8FE484604F042
:102C6000F5FA009090F85470D0F85880456BC46C19
:102C7000684604F055FBB8F1000F04D031464846D1
:102C80004246904761E0122E18D006DC082E43D051
:102C9000102E3CD0112E06D112E0132E21D01D2E65
:102CA00043D01E2E3DD0202E4FDB17B1484616F0E4
:102CB000DAF9B1B248461DF02DFB60B3611C27E084
:102CC0004DB3284604F0C2FA05462146019007F0AC
:102CD0002DF94419204607F0C9F801462346012280
:102CE00010E0C5B1284604F0B1FA0546214601902E
:102CF00007F01CF94419204607F0B8F801462346AE
:102D00004FF0FF32484615F06DFE01A81BE0611E32
:102D1000484600F0B0FA18E0BCB1611E484600F029
:102D2000AAFA484616F09FF90FE0484604F08EFADA
:102D30000090012F12D0012180F8541021464846FE
:102D400000F099FA684604F0EBFA484613F0C4FB29
:102D500000E001E007F00EFABDE8FC87002180F8F2
:102D60005410EFE7FEB544680546204614F09EFA7D
:102D700006462946204612F0F5F9002834D0286886
:102D80000E283DD004DC0B282FD00C284AD116E0A9
:102D90000F2825D0A0F58070133843D1204613F0BA
:102DA00061FD204600211FF027FA204604F04EFA6C
:102DB0000190C06F002113F02DFD01A81DE0E8680F
:102DC00060B1017A29B10168204600F012F90121B1
:102DD00000E00221204613F062FC23E00321F9E722
:102DE000012120461FF008FAFEBD204604F02EFA0D
:102DF0000090343004F084F9684604F091FA11E050
:102E000086B1E868416800290CDD0168092909D00C
:102E10000A2907D00D2905D01B2903D02046FFF72A
:102E200015FFFEBD284612F09FFDFEBDF0B587B030
:102E300004460DF1080CD4E90567B0F90850408A42
:102E4000ACE8E1000020CDE90010B4F90C00B4F9C1
:102E50001060C118B4F90A00B4F90E50104433469A
:102E60002A4600F009F8050002D0618A00F09AF9BC
:102E700007B02846F0BD00002DE9FF5F1F46DDE9E1
:102E80001254DDE90E6A90468946834605F0AEFD90
:102E90000DF1040C4AF4805058341E490096ACE8F9
:102EA00013003B4642464946584612F0A3FC040034
:102EB0002AD004F0CBF910220090119912F0A6FB51
:102EC00000981C2214496030FDF7ABF9009A0120EC
:102ED00082F85500681C00D0012082F88000002D87
:102EE00000DC08252DB215870020508750636D1C2B
:102EF000684604F015FA294620461DF044F818B932
:102F0000204612F069FD002407F034F904B0204691
:102F1000BDE8F09F652D0008B4070020F8B5154600
:102F20000E46040021D005F061FD65B10023324654
:102F30001946204612F030FC0546204604F086F97A
:102F40000090C5670CE0204604F080F90090C06F47
:102F500012F02DFD00990020C867204613F0BCFA3E
:102F6000684604F0DDF907F005F9F8BD2DE9FC41EC
:102F700015460E00044627D0002C25D005F036FD5E
:102F8000204604F063F9002701903770406BB0B120
:102F900004F05CF9009008F0D3F80146009806F0C0
:102FA000C5FF0446681E844200DD044622463046C2
:102FB0000099FDF736F9684604F0B2F9375501A8D3
:102FC00004F0AEF907F0D6F8BDE8FC8138B505008D
:102FD0004FF000040BD005F009FD284604F036F947
:102FE0000090846C684604F09BF907F0C3F8204613
:102FF00038BD2DE9F04186B00C46060055D005F0ED
:10300000F5FC304604F022F90090406B98B304F0D0
:103010001DF903900098806E06F092FB80463046C2
:1030200012F092FF0746039805F0E1FB0546009871
:1030300090F8601001F00301012916D002290DD08B
:10304000416EC06A00680844241A641E039808F0A0
:1030500077F80146002C0FDA002115E0781B401CA0
:1030600000EBD070A4EB6004F0E7406E791B081A07
:10307000241A641CEAE713E0AC4205DC0246214650
:10308000039807F0FDFF0146304600F0F4F803A86E
:1030900004F046F9404606F053FB304613F01CFAA4
:1030A000684604F03DF907F065F806B0BDE8F08128
:1030B00038B50C4605000FD005F098FC284604F002
:1030C000C5F8009018B18466284613F005FA6846E2
:1030D00004F026F907F04EF838BD2DE9FC47884684
:1030E0005FEA00094FF000055AD005F07FFC484622
:1030F00004F0ACF80090B0F93860446B684604F016
:103100000FF90027B8F1000F3ED04CB1204604F073
:103110009DF80190FDF7C9F8451C01A804F000F9DD
:10312000404608F00DF80446B04200DD3446214622
:10313000404606F0FBFE461C711B48461DF0CDFACA
:1031400008B3484604F082F80090406B04F07EF823
:10315000324641460190FDF764F80198304400F88A
:10316000017C0098C464B0F938108C4205D190F805
:103170005410012901D1641EC464684604F0D0F8DB
:1031800001A804F0CDF806E00098343003F0B8FF51
:1031900000984787C764484613F09EF906F0EAFF97
:1031A000BDE8FC8738B50C4605000FD005F01EFCC5
:1031B000284604F04BF8009018B10466284613F036
:1031C0008BF9684604F0ACF806F0D4FF38BDF8B5CA
:1031D00015460C46060013D005F008FC304604F0F6
:1031E00035F8009038B1022C05D200EB8400C5669A
:1031F000304613F071F9684604F092F806F0BAFF11
:10320000F8BD0000F8B51D4616460C46074605F009
:10321000EDFB2FB3384604F019F80090AC4201D909
:103220002C4602E0B44200D234460F4981650F4972
:10323000C1650021C0E91241C0E90F65012180F894
:103240005410B0F938100A2901DD0A2101876846B7
:1032500004F066F8384622F03BFA384613F03CF9A1
:1032600006F088FFF8BD0000417C0108D156020835
:10327000002221F039BF1CB50C4603F0E7FF009097
:10328000406BF0B103F0E2FF019007F059FF0099A5
:1032900091F8542002B10122002C00DA002484426B
:1032A00000DD0446B1F93800801AA04200DA044675
:1032B000C86CA04200D0CC640020086501A804F0CE
:1032C0002FF8684604F02CF81CBD012221F00CBF39
:1032D00008B568460CF08AFA0CF002F868460CF063
:1032E000A5FA08BD08B568460CF080FA0CF028F87D
:1032F00068460CF09BFA08BD70B500244FF40071CD
:103300000D4803F0B8F84FF47A7004F039FC4FF42C
:10331000FA750CE02B46002208A109A000F012F873
:1033200008B1012070BD00F0B7F9641CE4B20A2CAA
:10333000F0D3002070BD0000000C01404F4B000096
:10334000415400002DE9F04184460C4615461F46C5
:103350001D4EB6F800046FF30E00A6F80004624696
:103360001AA11C4811F09AFC54EA050010D0384606
:1033700004F006FCB6F800140020C1F30E017054EE
:103380008CB185B121463046FCF77DFF48B902E09B
:103390000120BDE8F08129460B48FCF774FF0028A6
:1033A000F7D00120F5E73CB121460748FCF76BFF59
:1033B0000028EED00120ECE729460348FCF763FF24
:1033C0000028E6D00120E4E71452002025730D0AFE
:1033D000000000000048004000B585B0002801D082
:1033E000012200E0002208A1684622F01DFF4FF4F0
:1033F000FA73002208A16846FFF7A4FF10B101206C
:1034000005B000BD0020FBE741542B4349504D550A
:10341000583D2564000000004F4B000010B54FF4EC
:103420007A7004F0ADFB05A1054811F037FCBDE84A
:1034300010404FF4FA7004F0A3BB00002B2B2B00BC
:103440000048004038B5012108200EF033F94FF450
:103450008070ADF8000010208DF8030003208DF877
:103460000200064C6946204602F07AFF6115ADF86D
:1034700000106946204602F073FF38BD000C014081
:1034800010B54FF4FA7300220DA10EA0FFF75AFFFA
:10349000A0B110A11248FCF7F6FE08B1022010BD41
:1034A00010A10F48FCF7EFFE08B1032010BD10A1DA
:1034B0000B48FCF7E8FE08B1042010BD002010BD49
:1034C0004F4B000041542B434950535441545553E2
:1034D000000000005354415455533A320D0A000085
:1034E000145200205354415455533A330D0A0000EE
:1034F0005354415455533A340D0A000010B5FFF7A8
:10350000A1FF00F025F9BDE810404FF4007101481B
:1035100002F0B1BF000C014000B59FB00B4602465F
:1035200008A101A822F080FE41F2883300220AA1FE
:1035300001A8FFF707FF10B101201FB000BD002058
:10354000FBE7000041542B43574A41503D2225736D
:10355000222C2225732200004F4B0000F0B5B9B099
:1035600004460F4615461E46642120A8FCF780FE3F
:1035700014B1012C0FD107E03B4612A212A120A8E2
:10358000009522F051FE06E03B4613A20EA120A8B2
:10359000009522F049FE052E06D220AB32460FA13F
:1035A00002A822F041FE04E020AA11A102A822F004
:1035B0003BFE4FF47A6312A215A102A8FFF7C2FEE8
:1035C00039B0F0BD54435000222573222C222573BC
:1035D000222C2573000000005544500041542B4319
:1035E000495053544152543D25642C25730000002A
:1035F00041542B43495053544152543D25730000CC
:10360000414C5245415920434F4E4E4543540000D2
:103610004F4B000070B50446002540F6C4165CB15F
:10362000012C10D0022C15D00020002803D16D1CD5
:10363000EDB20A2DF3D370BD33460AA20CA10DA042
:10364000FFF780FEF1E7334606A209A10CA0FFF7C1
:1036500079FEEAE7334603A205A10CA0FFF772FE4C
:10366000E3E700006E6F206368616E67650000002D
:103670004F4B000041542B43574D4F44453D3100C3
:1036800041542B43574D4F44453D320041542B4349
:10369000574D4F44453D330070B5084D4FF400740D
:1036A0002146284602F0E5FE4FF4FA7004F068FA6D
:1036B00021462846BDE8704002F0DDBE000C014006
:1036C00030B5044685B00D461846002C07D02A4672
:1036D00011A1124811F0E2FA012005B030BD052811
:1036E00006D2931C02460EA1684622F09DFD04E01E
:1036F000921C10A1684622F097FD4FF47A7423467D
:10370000002210A16846FFF71DFE234600220EA1ED
:103710002846FFF717FEE0E7257300000048004049
:1037200041542B43495053454E443D25642C256458
:103730000000000041542B43495053454E443D2561
:10374000640000003E20000053454E44204F4B00D3
:1037500010B586B0012188040DF09EFF01210820DC
:103760000DF0A8FF4FF48060ADF8140018208DF81C
:10377000170003208DF816001B4C05A9204602F007
:10378000EFFDE114ADF8141004218DF8171005A910
:10379000204602F0E5FD4FF4E13001900020ADF845
:1037A0000800ADF80A00ADF80C00ADF810000C20D0
:1037B000ADF80E000D4C01A9204611F009FA0122C6
:1037C00040F22551204611F0E8F9012240F224414F
:1037D000204611F0E2F900F00BF80121204611F02B
:1037E000A9F906B010BD0000000C014000480040DF
:1037F00008B527208DF8000000208DF80100022078
:103800008DF8020001208DF8030068460BF006FEDB
:1038100008BD000010B54FF47A742346002207A1BA
:1038200007A0FFF78FFD38B12346BDE8104008A27E
:1038300002A108A0FFF786BD002010BD4F4B00007D
:1038400041542B4349504D4F44453D310000000049
:103850003E00000041542B43495053454E44000064
:1038600010B5FFF7EFFD114C4FF40071204602F048
:1038700000FEA115204602F0FCFD0D4C002240F296
:103880002551204611F089F9002240F224412046BA
:1038900011F083F90021204611F04CF9BDE81040E9
:1038A00000214FF480200DF0F7BE0000000C014015
:1038B0000048004070B5FCF76DFC134A1178491CB4
:1038C0001170FCF76BFC082000F034F8C0B10F4910
:1038D0000822087810B101280AD00EE00C4B102005
:1038E00058610C4C226001250D702260186104E0C3
:1038F0000848001D026002200870082000F00CF843
:10390000BDE870400BF0D6BE400000207B010020D7
:103910000010014010140140014908607047000088
:103920001404014002490A6802430A60704700001B
:103930001004014001460020054A12680A40044B69
:1039400014331B680B4202D0002A00D001207047BC
:103950000004014030B51B4A83790168002B2AD04E
:1039600013688B431360111D0B680468A3430B603D
:10397000017911440B68046823430B60114C08342F
:103980002168036899432160231D19680568A943CC
:1039900019604179102905D011440A680068024372
:1039A0000A6030BD2168026811432160196800680F
:1039B0000143196030BD0079104402688A430260F7
:1039C00030BD0000000401402DE9F041CCB00546B7
:1039D00000244FF4967841466846FCF749FC0122E2
:1039E00024A12B4827F09CFC2A4F387028B1284886
:1039F00027F0F6FA4CB0BDE8F0814BA80BF0F6FECC
:103A000005EB851000EB8001214827F0F8FA3870AB
:103A1000224E214B40F245121D48F16927F065FD09
:103A200038701F4D002748B12F70F06907704BA800
:103A30000BF0FCFE164827F0D3FADBE7F1691422FD
:103A40000E46491D1648FCF7ECFB285D20280FD0D8
:103A5000641CA4B2142CF8D3424606F1190168463E
:103A6000FCF7DFFB42463146684628F02DFADEE7D8
:103A70002F55F1E7303A2F53797374656D2F6D65CB
:103A800073736167656C6973742E747874000000D9
:103A9000282C00202B0000202C000020EC0200200D
:103AA000606C00202DE9F84310258DF803500326A3
:103AB0008DF80260012120200DF0FCFD0824ADF8F6
:103AC00000406946234802F04BFC012110200DF014
:103AD000F1FDADF80050204F6946384602F040FC39
:103AE000012104200DF0E6FD0425ADF80050DFF8BB
:103AF0006C806946404602F033FC012104200DF041
:103B0000D9FDADF800406946404602F029FC01218C
:103B100010200DF0CFFD2021ADF800106946384689
:103B200002F01EFC012108200DF0C4FD4FF47F407F
:103B3000ADF800008DF803508DF802606946084822
:103B400002F00EFC05481430046002481030046096
:103B5000BDE8F88300140140001001400008014056
:103B6000000C01402DE9F04389B0984615460F46F8
:103B700006004FF000042DD000F0DCFB0446304678
:103B800000F09FFB814604F031FF03A9304600F0AE
:103B900064FDF80706D0BDF91C00001B401B401C4B
:103BA000822109E0B8070028BDF91800284402DA8C
:103BB00040F2022100E002210096CDE90181234676
:103BC0001A464946FDF736FD04460021FDF7EEFE94
:103BD00006F0D0FA09B02046BDE8F08310B5052301
:103BE000FFF7C0FF0446054A0021FDF704FF044922
:103BF000204612F088FE204610BD00009596010870
:103C0000016402082DE9F047456804468EB000269D
:103C1000284603F01BFB00905C30B0F820A0D0F8E1
:103C20000C90D0F82480C76A006800B10668684626
:103C300003F076FB05E079682046884700283DD1EF
:103C40003F68002FF7D12068142844D009DCA0F188
:103C50000B00072839D2DFE800F0BE3989B434B44C
:103C6000110020287ED004DC17283ED01E282CD13D
:103C70004BE026283CD02A2827D110E02846E668C9
:103C800003F0E4FA0190717A39B9317A012904D14B
:103C900030F87C1F41F48071018001A88FE0284634
:103CA00003F0D4FA0090E16811B1C0F8841002E08A
:103CB000D0F88400E060684603F032FB0EB0BDE847
:103CC000F087002E7DD02846B0477AE0214628466E
:103CD0001EF00CF8F2E705A9284600F0BEFCE068EB
:103CE0000699016007994160E8E7C4F80C90E5E7A0
:103CF000E0680228E2D10C95E0680D9027200A9038
:103D00000AA9A06813F0ECFCD8E7E068012804D009
:103D10000021284600F086FBD0E7404612F037FC31
:103D200058B1404612F0B4FE404612F001FB88B193
:103D30000121404611F0A5FA0CE0484612F0FCFEC5
:103D40008046284603F082FA0090C0F880806846DA
:103D500003F0E6FA0121284600F064FBB8F1000FF9
:103D6000ACD100E00EE00020E060A7E75FEA0A7057
:103D700027D4E068C06820B3007A10B3284612F058
:103D800087FE1EE0E668E6B12946706813F077FA10
:103D900020B10121284620F00BFB12E0002128462B
:103DA00020F006FB2946306813F058FA48B128463F
:103DB00003F04CFA03903168C0F8801003A803F0B8
:103DC000AFFA2146284611F0CDF900288CD02046C4
:103DD00011F0CAFD72E7284603F038FA00907030FF
:103DE00003F08EF96846EAE7F0B587B0B0F908400D
:103DF0000DF10C0C0C9E87694568ACE8F000448A14
:103E00000025CDE900150294B0F90C10B0F910505E
:103E1000B0F90E40B0F90A00194410442B4622466E
:103E200000F002F807B0F0BD2DE9F04F8BB09846D6
:103E3000DDE9155691468A468346149F1A9C04F084
:103E4000D5FD6034314845F48055CDE90204CDE913
:103E5000007543464A465146584611F0CBFC0400D3
:103E60004DD003F0F3F930220490179911F0CEFBF6
:103E70000498282226493430FCF7D3F9049819997C
:103E80005C30234F81600684002646620661083F4D
:103E9000C6627968016004A803F042FA05A92046C9
:103EA00000F0DBFB1B4841F2827103960094CDE9E0
:103EB0000110BDF91E00BDF91A10BDF91C20431AEE
:103EC000BDF918005B1C121A521C11F093FC064637
:103ED0007868416820468847204603F0B7F9049087
:103EE000866604A803F01CFA42F20400054202D1DF
:103EF000204611F0D9FD2046189900F018FB06F075
:103F000039F90BB02046BDE8F08F0000053C0008F1
:103F1000D8070020694900082DE9F041044694B013
:103F2000006800F0B7F908B1D94D01E0D84D2C3543
:103F3000606815281ED00CDC0B281FD004DC00287C
:103F40007ED005287DD12EE10E287BD01228F9D114
:103F500041E1162806D0172808D0182808D01C28B8
:103F6000F0D109E0E86914B0BDE8F081286AFAE709
:103F7000686AF8E7A86AF6E76869F4E720680B90D2
:103F80001C200C90206803F061F90390016D0BA8D0
:103F90008847064603A803F0C3F9022E0EDB95E816
:103FA00007008DE80700D4E904023346A16906F052
:103FB0005FFE20698719A069801B2BE0286805F047
:103FC00096FB2169E8690A18521E606904F036F907
:103FD000A269E869111A491C606904F02FF9676940
:103FE00020697F1C394604F079F93946A06904F04C
:103FF00075F9686805F07BFB20693946401C04F0C0
:104000006DF9A0693946401E04F068F92769A06976
:10401000BF1C801E8046286805F069FB4246394671
:10402000606904F00BF9686805F061FB606942465D
:10403000401C394604F002F9686A02280FDD02E0EC
:1040400015E1AFE000E1A86805F051FB61696A6A1B
:10405000881C8B1801465B1E4246384627E0296AB9
:10406000B14226DD6069022E074600F1020801DB3D
:10407000374401E007F10207206901DB304401E029
:1040800000F1020022693B460A44A2F101024146C6
:1040900004F060FA022E02DBA069821B01E0A26933
:1040A000921EA069E9693B46401A401C414604F053
:1040B00051FA022E02DB6069064401E06669B61C13
:1040C000E76928687F1E05F012FB3A4631462069F1
:1040D00004F08AF93A463146A06904F085F9E769A7
:1040E0006868BF1E05F003FB20693A46401C314654
:1040F00004F07AF9A0693A46401E314604F074F99A
:10410000E869022802DC286A022823DDA86A02285E
:1041100002DDE1690F1A01E0E769BF1EA86805F03A
:10412000E6FAE969022909DD20693B46421800F1F7
:10413000020C521E3146604604F00CFA286A02282E
:1041400008DDA269E8693B46101A401C921E314600
:1041500004F000FA286805F0CAFAD4E906202169BB
:1041600004F06CF8686805F0C2FAA2692169E06998
:10417000521E491C401E04F061F8A86A022811DD95
:104180002669A169E469B61C271AA1F102087F1CFF
:10419000A41EA86805F0ABFA2346424639463046CD
:1041A00004F0D8F972E0208A06B2ADF81460A08A53
:1041B00001B2ADF81610208B02B2ADF81820A08B1A
:1041C00003B2ADF81A30D5E90304CDE90004304656
:1041D00003F0CEFF5AE0208A298B0844ADF8140082
:1041E000A08AADF81600208B298B401AADF8180074
:1041F000A08BADF81A00206803F028F80390006F38
:10420000F0B1022005F026FB039991F87C00C0F381
:10421000C00001EB8000006C05F069FA0398406B68
:1042200005F08EFA0398006F03F010F803990A90D6
:10423000B1F95A2005A903F0E9FD0AA803F070F8C6
:1042400003A803F06DF821E0208AADF81400A08ADD
:10425000ADF81600208BADF81800A08BADF81A0051
:10426000A86805F044FA05A804F0A0F90EE020685B
:1042700002F0ECFF039030F85A1F41F00C0101806E
:1042800003A803F04DF8206812F088FC00206AE6CD
:104290001408002038B505004FF000040FD004F0DA
:1042A000A5FB284602F0D2FF009090F87C000007A2
:1042B00000D50124684603F033F805F05BFF204683
:1042C00038BD38B505004FF0000411D004F08EFB66
:1042D000284602F0BBFF0090C06D00218068026894
:1042E000284690470446684603F01AF805F042FF56
:1042F000204638BDF8B50E4605004FF0000411D039
:1043000004F074FB284602F0A1FF0090C06D314616
:1043100080680268284690470446684603F000F823
:1043200005F028FF2046F8BD0148006870470000EE
:10433000D807002030B587B005004FF0000413D037
:1043400004F054FB01A9284600F087F9284602F042
:104350007DFF0090B0F95440684602F0E1FF0CB9CF
:10436000BDF9044005F006FF07B0204630BD30B56A
:1043700004468BB0006802F069FF009090F87C1052
:10438000246A006FC1F3C00508B102F05FFF069018
:10439000E068029020690390A088401EADF81000EC
:1043A000E089ADF812002089401CADF81400608A45
:1043B000ADF81600BDF80800401CADF80800BDF8C7
:1043C0000A00401CADF80A00BDF80C00401EADF814
:1043D0000C000098406B05F0B3F9009808AA02A9F8
:1043E000B0F95A30069806F087F8009800EB85007F
:1043F000806B08F077FD009800EB8500006C08F0FA
:10440000A9FD08AB02AA04A9069811F00FF86846A6
:1044100002F086FF069810B106A802F081FF0BB0EB
:10442000002030BD70B50D46040009D004F0DEFA5E
:10443000294620461FF0BCFFBDE8704005F09ABE3B
:1044400070BD38B50C46050011D004F0CFFA2846EF
:1044500002F0FCFE0090816CA14203D08464806E67
:1044600012F03AF8684602F05BFF05F083FE38BDB3
:10447000074A0649054B1160064A083BD169586056
:104480001B68C2E906300846704700000808002093
:10449000D4070020D80700202DE9FC410D468046B6
:1044A00004F0A4FA5FEA080028D002F0CFFE0190E1
:1044B000C16D8C6800F038F907460198456301A882
:1044C00002F02EFF226801214046904706462268EE
:1044D0000321404690470546226800214046904708
:1044E0000446404600F009FA2B463246394640461B
:1044F000009400F091F9404611F0EEFF05F03AFE0D
:10450000BDE8FC8138B50C46054604F06FFA55B19C
:10451000284602F09BFE00900466684602F000FF09
:10452000284611F0D9FFBDE8384005F023BE7CB520
:104530000D4604001DD004F059FA204602F086FE14
:104540000090006F0190684602F0EAFE294601A83B
:1045500006F076FF58B1204602F078FE00900199EF
:104560000167684602F0DCFE204611F0B5FF05F059
:1045700001FE7CBD38B50C46050013D004F036FAB8
:10458000284602F063FE0090B0F95A10A14204D010
:10459000A0F85A40284611F09FFF684602F0C0FE7E
:1045A00005F0E8FD38BD000038B50C46050015D013
:1045B00004F01CFA284602F049FE0022CDF8000063
:1045C00000EB8201521C0C64022AF9D3684602F007
:1045D000A7FE284611F080FF05F0CCFD38BD2DE97F
:1045E000FC470D465FEA00094FF0000432D004F0AA
:1045F000FDF9484602F02AFE0190B0F95440A54268
:1046000023D000F091F8804601980121A0F8545081
:10461000C06D856848462A68904707462A68032186
:104620004846904706462A68002148469047054676
:10463000484600F062F933463A46414648460095FE
:1046400000F0EAF8484611F047FF01A802F068FEC2
:1046500005F090FD2046BDE8FC872DE9F34F85B0BD
:1046600000270C46B846059802F0F0FD0090C06D9A
:104670000121856805982A68904782462A680321A7
:104680000598904704902A68022105989047039066
:104690002A680021059890470646009812F08CFC85
:1046A0008346009812F08FFC8146009890F83210F3
:1046B000890601D5B0F9588000F036F80546009813
:1046C000C06E10B111F057FC074625806780A4F832
:1046D00004A0049AABEB020006EB0802401E2A4439
:1046E00020813A44E280039BA9EB0302521E6281BF
:1046F000A4F80CA020827019E681401E60826846F2
:1047000002F00EFEB4F90C000190B4F91000029012
:1047100002AA01A9059800F039F80198A081029831
:10472000208207B0BDE8F08F10B50146002091F857
:104730003220920607D5B1F95400002803D1486B06
:1047400004F0C4F8801C10BD70B58AB00C46054654
:1047500002F07CFD0990C06D866809A802F0E0FDBA
:10476000009534B1012C06D0022C0BD0032C04D1BF
:104770000AE0182000E0162001907168684688471A
:104780000AB070BD1520F7E71720F5E72DE9FC47C3
:1047900090468946044602F059FD0090C16D0568B7
:1047A00068468E6802F0BCFD3268002120469047C2
:1047B0000646204611F04DFA2F1404462DB227E08C
:1047C00002F044FD0190B0F90010B0F90420B0F9F6
:1047D0000230491B521BDB1BB34212D190F8280058
:1047E000000607D5D8F8000088420ADB491EC8F841
:1047F000001006E0D9F80000904202DC521CC9F813
:10480000002001A802F08CFD204611F0E7FA0446D2
:10481000002CD5D1BDE8FC872DE9FF4F83B00E46B3
:104820000746DDF8409002F011FD0190C16D8D68E2
:10483000FFF77AFF044601A802F072FD2A68012101
:104840003846904783462A68032138469047824677
:104850002A680021384690470546B44207D1059999
:104860008B4504D106998A4501D14D4542D0A41B00
:104870000026B046384611F0ECF939E002F0E6FCCB
:104880000090806A010602D54FEA805002E081055F
:1048900028D50006002825DB24B1224611463846DB
:1048A00011F03DFF009890F8280000060AD5069800
:1048B000A5EB0902A0EB0A0004FB1601761C3846A2
:1048C00011F0DEFE0098008D80050BD50599A5EB53
:1048D0000902ABEB010004FB080108F101083846AE
:1048E00011F0CEFE684602F01BFD384611F076FA54
:1048F0000700C3D107B0BDE8F08F70B586B006469B
:1049000002F0A4FC0590D0E91A4505A802F008FDC4
:1049100054EA050026D069463046FFF79EFEACB14A
:10492000BDF90620BDF90410204611F06DFEBDF959
:104930000A00BDF90610421ABDF90800BDF90410BD
:10494000521C411A491C204612F07DF9002D09D055
:10495000BDF90600BDF90210421ABDF9041028463F
:1049600011F052FE06B070BD2DE9F04304464068D8
:1049700085B0064611F050FA814602F067FC0090BF
:10498000D0F88080876C456E684602F0C9FC2068CC
:10499000172859D008DC0E2837D00F280BD0142840
:1049A00052D015283AD14FE01E2818D01F2827D002
:1049B000222833D146E06FF07040874204D0384659
:1049C00008F090FA02F0F4FE002D12D0D4E90212A1
:1049D0002068CDE90106CDE9031201A822E0E068D4
:1049E000002806D05FEA080006D0B04504D012F0D7
:1049F0004FF805B0BDE8F083304612F09DF816E0A0
:104A00002146484610F0AEFBF3E7E0684168002914
:104A100004DD00680928EFD00A2805D0A5B120469A
:104A2000C4F80490A847E4E7304612F094F804462E
:104A3000484602F00BFC0090C0F88040684602F047
:104A40006FFCD6E7E760D4E7204610F08DFFD0E793
:104A50008000A0F1C040002904D0016841F00101AC
:104A6000016070470168024A114001607047000010
:104A7000FEFF0F0010B5D0E901121143D0E9032366
:104A80001A4311434269114382691143C2691143B8
:104A9000026A1143426A1143826A1143C26A114396
:104AA000026B114302689200A2F1C042116081685A
:104AB000082907D101688900A1F1C0410A6842F0C4
:104AC00040020A60416BD1E9002342EA03128B687D
:104AD0008C891B0243EA04431A430B8A42EA0352BD
:104AE0000B7D896942EA03620A430168491C890017
:104AF000A1F1C0410A60C16AB1F5804F08D00068D9
:104B00006FF070418000A0F1C040C0F8041110BDEA
:104B1000816BD1E9002342EA03128B680C8A1B02E5
:104B200043EA04531A430B7D896942EA0362006831
:104B30000A438000A0F1C040C0F8042110BD00006D
:104B40002DE9F0478AB0142105A8FBF791FB00245A
:104B50004E4D00262E7005F110003121017041707C
:104B600032218170C6704AA021F04EFB11F04AF844
:104B7000034600964E4A07214E48019602F064FE15
:104B800007464D480221CDE90071CDE90206BE235A
:104B9000E6224121052010F02DFE686010F0ACFDEA
:104BA00028F054F8454EDFF8188198B1022245A14B
:104BB00046A009F03FFD03F09BFC307810B1384669
:104BC00010F00AFF98F8000000285CD00A2002F0DC
:104BD000D7FFF2E725F0DEFC45A248A148480FF0D8
:104BE000DBFE4FF48079DFF81CA148E0642C3CD94F
:104BF00005A807F091FC88BB4946504601F03BFCF4
:104C000005A9E8680EF07FFF686811F0A1FBA868AD
:104C100011F09EFB40F261142146384611F008F86D
:104C200039A10EF070FF2146384611F001F812F05C
:104C30004EF840F27111384610F0FAFF12F047F8C2
:104C40004FF4B971384610F0F3FF12F040F840F21B
:104C50007311384610F0ECFF11F07AFB25F09AFC46
:104C60004946504601F005FC0024641CE4B230784B
:104C700010B1384610F0B0FE0A2002F081FF98F81B
:104C800000000028B2D10AB0BDE8F087C0020020C1
:104C90003C3C2D4F532D494E464F2D3E3E205068F3
:104CA0006F6E65617070206372656174650A0A00D9
:104CB00001830208FC9F0408658F02082900002078
:104CC000850100206572726F720000000D0A204E8F
:104CD0006F2064657465637465642053494D393091
:104CE0003041206D6F64756C6521200D0A00000055
:104CF00041542B434C49503D310D000025730000B9
:104D00000044004000080140E696B0E69DA5E79407
:104D1000B52E2E2E000000002DE9F043DBB000245C
:104D2000142156A8FBF7A4FA502142A8FBF7A0FAD9
:104D30004FF48078414602A8FBF79AFA4FF480516D
:104D4000374825F098FC38493648C86137A021F02B
:104D50005BFA3FA025F07CFC10F054FF03460020D6
:104D6000009001903D4A07213D4802F06DFD074645
:104D700027F06CFF3B4D98B102223BA13CA009F00B
:104D800059FC03F0B5FB434C287810B1384610F0BD
:104D900023FE2078002840D00A2002F0F1FEF3E73D
:104DA00025F0F8FBDFF8F0903C4E33E0642C27D977
:104DB00007F070FB044620001BD04146484601F036
:104DC0005AFB174A42A9204627F0B0FD38B102A984
:104DD000134827F003FA02A942A827F04FFE224603
:104DE0002FA156A821F020FA56AA30A130480FF082
:104DF000D3FD25F0CFFB4146484601F03AFB0024A5
:104E0000641CE4B2287810B1384610F0E5FD0A20A1
:104E100002F0B6FE30780028C8D15BB0BDE8F08360
:104E200070580020705C0020EC0200203C3C2D4FAC
:104E3000532D494E464F2D3E3E204D65737361679D
:104E400065617070206372656174650A0A00000014
:104E5000303A2F53797374656D000000D97E0208D3
:104E6000C0A00408290000206572726F7200000063
:104E70000D0A204E6F206465746563746564205369
:104E8000494D39303041206D6F64756C6521200DBE
:104E90000A00000085010020000801408601002072
:104EA00041542B434D47443D25640D0025730000BC
:104EB000004400407CB510F0A5FE034600200090A1
:104EC0000190224A0521224802F0BEFC064621A09C
:104ED00021F09AF92749284807F078FB2648274906
:104EE000083007F073FB264C264D2BE0224807F0D4
:104EF0007BFB2148083007F077FB00211E4807F0B4
:104F00006DFB38B1206880F00100206001211A4853
:104F100007F064FB18480021083007F05FFB40B140
:104F2000206880F00200206013480121083007F05B
:104F300055FB1548007810B1304610F04DFD0A20A1
:104F400002F01EFE28780028D0D17CBD217C02080A
:104F5000E43004083C3C2D4F532D494E464F2D3E26
:104F60003E204B4559617070206372656174650A1B
:104F70000A000000D5B600089C010020F1B6000828
:104F80000C0C014087010020290000207CB5164C44
:104F9000DA20207025206070C420A07013A021F0BA
:104FA00033F90EF023FFA278617820780EF0E4F850
:104FB00010F028FE0346002000900190144A0721BB
:104FC000144802F041FC0646134C144D07E02178CA
:104FD00011B1304610F000FD0A2002F0D1FD297811
:104FE0000029F4D17CBD0000AC0100203C3C2D4FD9
:104FF000532D494E464F2D3E3E20427265617468E6
:10500000696E67617070206372656174650A0A0079
:10501000556502087031040829000020880100202D
:105020002DE9F04F8BB000261C2104A8FBF720F9D6
:1050300059A021F0E9F810F0E5FD002503460095A0
:105040005D4A03215D48019502F0FEFB8346584608
:1050500010F0CDFD02228DE825004FF40871039178
:10506000C823DC225021052001F092FA07460023D4
:105070001A46FA21FF2001F0F9FA514CA0600122F2
:1050800032231146192001F04BFB814632230022C6
:105090000221BE2001F044FB82464FF6FF784146D4
:1050A000504601F087FB4749384610F003F90023CA
:1050B0001A4619463846009501F096FB4249384693
:1050C00001F00DFC3221384601F0AFFB01213846DA
:1050D00001F0E9FB0121384601F0C1FB0021A06885
:1050E00001F004FB3949484601F046FB4146484679
:1050F00001F060FB3846A16801F0BFF94946384627
:1051000001F0DDF95146384601F0D9F9304F3CE065
:10511000761CF6B2322E2FD320880646FBF714FBFE
:10512000FBF755FB4FF066322A4BFBF70CFA6FF09A
:105130000B02FBF7E9FAFBF775FB6060FBF747FB37
:10514000CDE90001324624A104A821F06DF88DF8C4
:10515000285040F26111584610F06AFD04A90EF083
:10516000D2FC21496068FBF715F9FBF703FB01B29C
:10517000A06801F05DFA00261C48007810B158467E
:1051800010F02AFC0A2002F0FBFC38780028BFD17E
:105190000BB0BDE8F08F00003C3C2D4F532D494E25
:1051A000464F2D3E3E20414443617070206372653E
:1051B0006174650A0A00000015640208A4980408D6
:1051C0003C0200206C460508F95702080AD7A33CA8
:1051D0008901002066660A40307825303458202D39
:1051E0002D3E202566560000000048422900002080
:1051F0002DE9F041ADF5027D00253CA021F004F839
:1052000010F000FD002703460097414A092141485C
:10521000019702F019FB0646012002F0B1FCA02024
:1052200027F06CF825F01EFE3B4C4FF4B07140B1F6
:1052300001202070304610F0FBFC38A10EF063FC1A
:1052400006E0304610F0F4FC36A10EF05CFC27704E
:10525000207840F2611770B3002042A90854401C26
:1052600080B2FF28FAD94FF480784246002142A844
:1052700025F038FE70B1FA24641E2404240CFBD1FE
:105280004246002102A825F0F8FD18B1641CA4B222
:10529000FF2CFBD93DB13946304610F0C9FC21A1A5
:1052A0000EF031FC0FE03946304610F0C1FC1BA176
:1052B0000EF029FC07E0FFE73946304610F0B8FC55
:1052C00018A10EF020FC194C194D07E0207810B100
:1052D000304610F081FB0A2002F052FC28780028AA
:1052E000F4D10DF5027DBDE8F08100003C3C2D4F6E
:1052F000532D494E464F2D3E3E20454550524F4D71
:10530000617070206372656174650A0A00000000B4
:1053100065750208F898040848020020E68890E5C0
:105320008A9F0000E587BAE99499000029000020CF
:105330008A0100207CB51FA020F066FF10F062FCFF
:105340000346002000900190224A0E21224802F0DC
:105350007BFA0646304610F04AFC0023FA22194632
:1053600010F01AFA0A2002F00BFC1C4C207818B13D
:105370001B480CF051FA2070207828B1012219A1A5
:105380001AA003F0BBFF06E04FF4B871304610F0EE
:105390004FFC10F09EFB1B4C1B4D07E0207810B11A
:1053A000304610F019FB0A2002F0EAFB28780028AA
:1053B000F4D17CBD3C3C2D4F532D494E464F2D3EE4
:1053C0003E20436C6F636B61707020637265617423
:1053D000650A0A00096F0208F49904089800002081
:1053E000F85100206572726F720000000D0A2052A1
:1053F000544320576F726B20446F776E2121212018
:105400000D0A0000290000208B0100202DE9FC4737
:1054100010F0F8FB0026034600961E4A02211E48A3
:10542000019602F011FA82461CA020F0EDFE4FF426
:105430008051224825F01FF92149204808600FF0CB
:10544000C3FC204D204C214FDFF88480DFF884908E
:105450001AE0287858B10DF0DFFF0DF0DFFF0FF0F4
:10546000F3FC0FF0DDFC20680528FCD12E703868B5
:1054700080F00100386098F8000010B1504610F03C
:10548000ABFAC82002F07CFB99F800000028E0D1BC
:10549000BDE8FC87C18602087C9B04083C3C2D4F7C
:1054A000532D494E464F2D3E3E205553426170705C
:1054B000206372656174650A0A000000705800205C
:1054C000700300204D020020EC0400200C0C014071
:1054D000290000208C0100202DE9FE4F0025CCA0E2
:1054E00020F092FED24E0027377001207070B77006
:1054F00010F088FB03460097CE4A0A21CE48019758
:1055000002F0A2F902904FF48051CC4825F0B3F894
:10551000DFF82C83DFF82CB372E1B07800287DD15E
:10552000307800287AD07078002878D0DFF818A377
:10553000DAF8000010F0CAFA4FF4B871029810F0CF
:1055400077FBC2A1FCF76DFA0A2002F019FBFDF708
:10555000D5FF4FF48071C04800F08DFFFDF7CCFE01
:1055600018B9B07840F00100B0700020FEF752F892
:1055700018B9B07840F00200B07000244FF0FF0975
:105580000FE0AB492331A1F11500FDF7C5FF60B96C
:1055900098F8000008B9307808B986F80290641CC1
:1055A000A4B2B07808B90A2CEBD30A2C03D1B17895
:1055B00041F00401B17000240CE00020FDF70CFF65
:1055C00060B998F8000008B9307808B986F80290F8
:1055D000641CA4B2B07808B90A2CEED30A2C03D10B
:1055E000B17841F00801B170002411E0904A052320
:1055F000083202F130010020FDF7B0FF60B998F8E1
:10560000000008B9307808B986F80290641CA4B28A
:10561000B07808B90A2CE9D30A2C01E0E5E02BE0C8
:1056200003D1B17841F01001B17000240BE0FEF716
:10563000F1F860B998F8000008B9307808B986F830
:105640000290641CA4B2B07808B90A2CEFD30A2CDB
:1056500003D1B07840F02000B070804801886FF32B
:105660000E010180018821F4004101807770DAF891
:10567000000010F02EFA7BE0142D79D34FF4B87AA5
:105680005146029810F0D4FA75A1FCF7CAF940F21D
:1056900071194946029810F0CBFA10F01AFA734CBF
:1056A000B4F80004000422D54FF48061634824F06C
:1056B000E2FFB4F80004C0F30E002754254605238A
:1056C000002229460120FDF7FBFF5C49284624F013
:1056D000DAFF706809F03AFBB0F57A7F03DB64A16A
:1056E000706809F0D4FB5549706809F0AEF861485C
:1056F000007890B3FDF792FEFDF7C2FE0028FBD0C4
:1057000004282AD13770777040F20311029810F004
:105710008FFA10F0DEF94FF48171029810F088FAD8
:1057200010F0D7F940F20111029810F081FA10F050
:10573000D0F94FF48071029810F07AFA10F0C9F99C
:105740004946029810F074FA10F0C0F951460298D8
:1057500010F06EFA48A1FCF764F904F58064208823
:105760006FF30E002080208820F400402080002568
:10577000B078D0B39BF80000B8B340F203110298A0
:1057800010F056FA10F0A5F94FF48171029810F05C
:105790004FFA10F09EF940F20111029810F048FA09
:1057A00010F097F94FF48071029810F041FA10F060
:1057B00090F940F27111029810F03AFA10F086F95F
:1057C0004FF4B871029810F033FA2BA1FCF729F9C5
:1057D00037707770B078FF2806D0012229A12BA05E
:1057E00003F08CFD01207070B7706D1CEDB298F85D
:1057F000000010B1029810F0EFF80A2002F0C0F992
:105800009BF8000000287FF488AEBDE8FE8F000002
:105810003C3C2D4F532D494E464F2D3E3E2057695F
:105820006669617070206372656174650A0A0000C0
:10583000500200203D890208B49B040870580020E3
:10584000290000208D01002080010020E8BF9EE695
:105850008EA5E4B8AD000000000C014014560020F5
:10586000E9809AE4BFA1E4B8AD0000001452002022
:105870000000000030000020E69CAAE8BF9EE68EF3
:10588000A50000006572726F720000000D0A2054BE
:10589000686520576966692064726976652063616E
:1058A0006E6E6F7420776F726B21200D0A000000FE
:1058B000F0B587B00024002604960596029603965C
:1058C0003EA020F0A1FC464D2E700DF0EBFFFCF742
:1058D0003BFF012806D005F108000CF03FF9012834
:1058E00006D007E001202870FCF7F9FE686001E0AF
:1058F0000220287010F086F903460096394A0421E8
:105900003948019601F0A0FF0746384E51E028784B
:1059100008B1641CE4B2782C42D306A809F066FFF3
:105920002878022802D0012823D035E02C480830FE
:105930000CF014F92A4C2EA1083404A8E378A278BC
:1059400020F072FC40F26111384610F071F904A9A0
:105950000EF0D9F86378227825A102A820F064FC23
:105960004FF4B171384610F063F902A90EF0CBF88C
:1059700012E0FCF7B4FE6860FAF729FF02460B4616
:105980001DA104A820F050FC4FF4B071384610F06F
:105990004FF904A90EF0B7F806A809F047FF002454
:1059A0001748007810B1384610F016F80A2002F0B7
:1059B000E7F830780028AAD107B0F0BD3C3C2D4F65
:1059C000532D494E464F2D3E3E2048756D697475E6
:1059D0007265617070206372656174650A0A000007
:1059E0009802002099790208CC9C04088E010020BE
:1059F00025642E256400000025302E32660000004C
:105A0000290000202DE9F04F85B00024FDF728FF84
:105A100043A020F0F9FB10F0F5F8002702224949D5
:105A2000CDE90002CDE902174FF4A073F022394608
:105A300038460FF0DFFE8346642002F0A1F80BF039
:105A400009FC4FF47A7507E00BF00CFC30B92846DE
:105A500024F040FC641CE4B20A2CF5D3DFF8E8A083
:105A60000A2C0CD00FF03EFB384E3770022006F0A7
:105A7000B3FB0A2024F02EFC2024354D49E0584683
:105A800010F02AFD022233A134A008F0D3FD02F069
:105A90002FFD58460FF0A0FF9AF8000000283CD0D8
:105AA0000A2002F06DF8F4E73078022828D104A823
:105AB00009F09CFE3249042008606C612C61091FCA
:105AC00008606C612C610021DFF8B8C0DFF8B88095
:105AD0004FF496396C61DCF8002002F47F422C61AF
